:020000040800F2
:1000000000000320DD020008E3020008E702000808
:10001000590300085D030008A50300080000000064
:10002000000000000000000000000000ED030008D8
:10003000F103000800000000F5030008051A00089D
:10004000090400080904000809040008090400085C
:10005000090400080904000809040008090400084C
:10006000090400080904000809040008090400083C
:10007000090400080904000809040008090400082C
:10008000090400080904000809040008090400081C
:10009000090400080904000809040008090400080C
:1000A00009040008090400080904000809040008FC
:1000B00009040008090400080904000809040008EC
:1000C00009040008090400080904000809040008DC
:1000D00009040008090400080904000809040008CC
:1000E00009040008090400080904000809040008BC
:1000F00009040008090400080904000809040008AC
:10010000090400080904000809040008090400089B
:10011000090400080904000809040008090400088B
:10012000090400080904000809040008090400087B
:10013000090400080904000809040008090400086B
:10014000090400080904000809040008090400085B
:10015000090400080904000809040008090400084B
:10016000090400080904000809040008090400083B
:100170000904000809040008090400080000000040
:10018000090400080904000809040008090400081B
:10019000090400080904000809040008090400080B
:1001A00009040008090400080904000800B583B028
:1001B00000F06CFF384B394A1360394A13603949F3
:1001C00006E052F8041B43F8041B9842F9D8614634
:1001D000354B994205D20A684B6801F10C0C8868CE
:1001E000F3E72E4B1A68314B9A4200D0FEE72C4BB6
:1001F0001A682F4B9A42F9D1274B2E4A13602E4A88
:1002000013602E4A00E002462D4B9A4209D2104656
:1002100050F8083B51689942F5D9002243F8042B65
:10022000F9E7244B1B6813B9234B1B6803B1FEE7A6
:1002300000F0E0FF694601A800F036FE214C224B99
:10024000E41AA410002504E01F4B53F8253098470A
:100250000135AC42F8DC1D4C1D4BE41AA4100025FE
:1002600004E01B4B53F8253098470135AC42F8DCCD
:100270000099019801F006FB0546164C164BE41A4E
:10028000A41004E0013C144B53F824309847002C90
:10029000F8DC284600F0DAFDBABADECA0000002019
:1002A000D40100200C0400082404000878563412FD
:1002B00032547698D80100207C02002024040008E3
:1002C000340400083404000834040008340400082E
:1002D00034040008340400083404000808B5FFF7AB
:1002E00065FF00BEFEE71EF0040F0CBFEFF30880B1
:1002F000EFF309807146414A10472DE9F04182B081
:1003000004460D46124B5F6BD3F838809E6A1B6B18
:1003100013F0020F03D00E4BDB6A002B0BDB0D48F2
:1003200000F000FE009543463A463146204600F074
:1003300023FE00BEFEE74BF6AB6100F097FE0028FF
:10034000EDD0034B4FF00042DA6202B0BDE8F0811D
:1003500000ED00E08873000800BEFEE71EF0040F09
:100360000CBFEFF30880EFF309807146244A104771
:100370002DE9F04182B004460D46084B5F6BD3F87F
:1003800038809E6A064800F0CDFD009543463A4607
:100390003146204600F0F0FD00BEFEE700ED00E033
:1003A000987300081EF0040F0CBFEFF30880EFF302
:1003B00009807146134A10472DE9F04182B0044686
:1003C0000D46084B5F6BD3F838809E6A064800F0F4
:1003D000A9FD009543463A463146204600F0CCFD43
:1003E00000BEFEE700ED00E0A473000800BEFEE7DB
:1003F00000BEFEE700BEFEE770470000FB020008FB
:0C04000071030008B903000800BEFEE70D
:10040C003879000800000020D80100203879000855
:10041C000000001000000010D80100208002002015
:08042C000000001000000010A8
:1004400010B504460E4B1A784FF47A73B3FBF2F3EF
:100450000C4A1068B0FBF3F000F0A8F868B90F2C54
:1004600001D901200AE0002221464FF0FF3000F0C0
:1004700057F8054B1C60002000E0012010BD00BFB4
:1004800004000020140000200800002008B50B4BD9
:100490001A6842F400721A601A6842F480621A60A4
:1004A0001A6842F480721A60032000F01BF80F20D3
:1004B000FFF7C6FF01F09AFA002008BD003C024099
:1004C000034A1168034B1B780B441360704700BF4D
:1004D000DC01002004000020014B1868704700BFB9
:1004E000DC01002010B50446C31E042B0FD80A4AB5
:1004F000D36823F4E0631B041B0C240204F4E064BF
:10050000234343F0BF6343F40033D36010BD922113
:10051000024800F077FEEAE700ED00E0B471000861
:1005200070B505460C4616460F2A25D80F2C28D83C
:100530001B4BDB68C3F30223C3F10702042A28BF65
:100540000422191D062921D9033B4FF0FF3101FA7E
:1005500002F224EA02049C40994026EA010644EA99
:100560000602002D14DB1201D2B205F1604505F53B
:10057000614585F8002370BDAA210A4800F042FEBB
:10058000D4E7AB21074800F03DFED1E70023DCE7CC
:1005900005F00F051201D2B2034B5A55EBE700BF2D
:1005A00000ED00E0B471000814ED00E00138B0F196
:1005B000807F0BD24FF0E0235861054AF02182F88A
:1005C00023100020986107221A61704701207047AC
:1005D00000ED00E010B50446042800D040B9042C1A
:1005E0000CD04FF0E022136923F00403136110BD17
:1005F00040F2C911054800F005FEF0E74FF0E02297
:10060000136943F004031361F1E700BFB4710008FC
:10061000002800F05B8270B582B0044603680F2B9F
:1006200039D8236813F0010F4DD063682BB1B3F5AF
:10063000803F02D0B3F5A02F32D1804B9B6803F0EE
:100640000C03042B36D07D4B9B6803F00C03082B66
:100650002BD06368B3F5803F5FD0B3F5A02F62D095
:10066000764B1A6822F480321A601A6822F48022CB
:100670001A606368002B60D0FFF72EFF05466F4BB2
:100680001B6813F4003F1ED1FFF726FF401B6428B0
:10069000F5D9032021E2E821694800F0B3FDC0E765
:1006A000ED21674800F0AEFDC7E7644B5B6813F4CB
:1006B000800FCED0614B1B6813F4003F03D06368FA
:1006C000002B00F00582236813F0020F66D0E36868
:1006D000012B41D823691F2B44D8584B9B6813F03A
:1006E0000C0F4AD0554B9B6803F00C03082B3FD0EE
:1006F000E368002B77D0534B01221A60FFF7ECFE22
:1007000005464E4B1B6813F0020F63D1FFF7E4FE62
:10071000401B0228F5D90320DFE1484A136843F45F
:1007200080331360A5E7454B1A6842F480221A60B3
:100730001A6842F480321A609BE7FFF7CDFE054647
:100740003E4B1B6813F4003FBDD0FFF7C5FE401BB6
:100750006428F5D90320C0E140F21F11384800F0A9
:1007600051FDB7E74FF49071354800F04BFDB4E709
:10077000324B5B6813F4800FBAD1304B1B6813F017
:10078000020F03D0E368012B40F0A4812B4A1368C9
:1007900023F0F803216943EAC1031360236813F0CF
:1007A000080F51D06369012B2FD863699BB3254B88
:1007B0000122C3F8802EFFF78FFE05461F4B5B6FAB
:1007C00013F0020F40D1FFF787FE401B0228F5D936
:1007D000032082E1194A136823F0F803216943EAF0
:1007E000C1031360DAE7174B00221A60FFF774FEAB
:1007F0000546124B1B6813F0020FCFD0FFF76CFEBB
:10080000401B0228F5D9032067E14FF4B0710C4872
:1008100000F0F8FCC9E70B4B0022C3F8802EFFF76D
:100820005BFE0546054B5B6F13F0020F0CD0FFF724
:1008300053FE401B0228F5D903204EE10038024048
:10084000E871000800004742236813F0040F7CD0D1
:10085000A368012B01D9052B38D1A44B1B6C13F0D5
:10086000805F39D100230193A04B1A6C42F0805273
:100870001A641B6C03F080530193019B01259C4B70
:100880001B6813F4807F29D0A368012B3AD0052B75
:100890003ED0964B1A6F22F001021A671A6F22F0AF
:1008A00004021A67A368002B3CD0FFF715FE06462A
:1008B0008E4B1B6F13F0020F45D1FFF70DFE801B0F
:1008C00041F288339842F3D9032006E14FF4C67110
:1008D000884800F097FCC0E70025D0E7844A1368F9
:1008E00043F480731360FFF7F7FD0646804B1B68E7
:1008F00013F4807FC8D1FFF7EFFD801B0228F5D9E4
:100900000320EAE0794A136F43F001031367C9E754
:10091000764B1A6F42F004021A671A6F42F0010216
:100920001A67BFE7FFF7D8FD0646704B1B6F13F041
:10093000020F08D0FFF7D0FD801B41F288339842A8
:10094000F3D90320C9E0002D3ED1A369022B41D881
:10095000A369002B00F0C080644A926802F00C0288
:10096000082A00F09380022B7CD1E36913B1B3F520
:10097000800F35D1236A3F2B38D8636A323BB3F5F9
:10098000BF7F39D8A36A022B08D0082B3AD84FF47E
:10099000A87222FA03F313F0010F33D0E36A023B8B
:1009A0000D2B35D8544B00221A66FFF795FD0546EE
:1009B0004E4B1B6813F0007F30D0FFF78DFD401BBE
:1009C0000228F5D9032088E0484A136C23F08053AD
:1009D0001364BAE740F2CF11464800F013FCB7E7C2
:1009E0004FF4EC71434800F00DFCC3E740F2D9111D
:1009F000404800F007FCC0E74FF4ED713D4800F0BF
:100A000001FCBFE740F2DB113A4800F0FBFBC5E711
:100A10004FF4EE71374800F0F5FBC3E7E369226A53
:100A20001343626A43EA8213A26A5208013A43EA14
:100A30000243E26A43EA02632C4A53602E4B0122CE
:100A40001A66FFF749FD0446284B1B6813F0007F28
:100A500006D1FFF741FD001B0228F5D903203CE039
:100A600000203AE0244B00221A66FFF735FD0446C9
:100A70001E4B1B6813F0007F06D0FFF72DFD001BF7
:100A80000228F5D9032028E0002026E0012B26D0FB
:100A9000164B5B6803F48001E269914221D103F0B7
:100AA0003F02216A8A421ED1616A47F6C0721A402B
:100AB0008A4223D103F44032A16A8A4220D103F052
:100AC0007063E26A93421DD1002006E00120704766
:100AD000012002E0012000E0002002B070BD0120F2
:100AE000FBE70120F9E70120F7E700BF00380240EB
:100AF00000700040E8710008000047420120ECE768
:100B00000120EAE70120E8E708B5334B9B6803F0D2
:100B10000C03042B5BD0082B5BD12F4B5A6802F0DF
:100B20003F025B6813F4800F2CD02B4B5868C0F346
:100B300088104FEA401CBCEB000C6EEB0E0E4FEA27
:100B40008E1343EA9C634FEA8C11B1EB0C0163EB0B
:100B50000E03DB0043EA5173C90011EB000C43F1B3
:100B60000003590200234FEA4C2041EADC5101F016
:100B7000F3FE194B5B68C3F3014301335B00B0FB29
:100B8000F3F027E0144B5868C0F388104FEA401C7C
:100B9000BCEB000C6EEB0E0E4FEA8E1343EA9C6327
:100BA0004FEA8C11B1EB0C0163EB0E03DB0043EA5F
:100BB0005173C90011EB000C43F1000399020023AB
:100BC0004FEA8C2041EA9C5101F0C6FED1E7034870
:100BD00000E0034808BD00BF0038024000127A0060
:100BE0000024F400002800F0FA8070B50D46044699
:100BF0000368013B0E2B30D80F2D34D87C4B1B687B
:100C000003F00F03AB4208D2EBB2794A13701368BA
:100C100003F00F03AB4240F0E480236813F0020FAF
:100C200032D013F0040F04D0724A936843F4E053B7
:100C30009360236813F0080F04D06E4A936843F45E
:100C400060439360A368C3B1C02B16D049D8A02BD2
:100C500013D00ED9B02B10D049E040F25121664894
:100C600000F0D0FAC8E740F25221634800F0CAFA17
:100C7000C4E7802B01D0902B39D15E4A936823F0D2
:100C8000F003A1680B439360236813F0010F48D071
:100C90006368032B31D86368012B34D09A1E012A74
:100CA00038D9544A126812F0020F00F09C80514962
:100CB0008A6822F0030213438B60FFF70DFC06469F
:100CC0004C4B9B6803F00C036268B3EB820F28D097
:100CD000FFF702FC801B41F288339842F0D90320D1
:100CE00070E0E02BC9D0F02BC7D0D02BC5D040F29C
:100CF0007521414800F086FABFE74FF41F713E4866
:100D000000F080FAC7E73B4A126812F4003FCED1E8
:100D1000012057E0374A126812F0007FC7D1012046
:100D200050E0334B1B6803F00F03AB4207D9EAB224
:100D30002F4B1A701B6803F00F03AB4255D1236889
:100D400013F0040F14D0E3685BB1B3F5805F08D0F3
:100D5000B3F5A05F05D0B3F5C05F02D0B3F5E05F97
:100D600031D1244A936823F4E053E1680B43936044
:100D7000236813F0080F15D023695BB1B3F5805FCA
:100D800008D0B3F5A05F05D0B3F5C05F02D0B3F5CE
:100D9000E05F1ED1174A936823F46043216943EA58
:100DA000C1039360FFF7B0FE124B9B68C3F30313BC
:100DB000124AD35CD840124B1860124B1868FFF7E8
:100DC0003FFB002070BD40F2BA210B4800F01AFA38
:100DD000C7E740F2C121084800F014FADAE7012021
:100DE00070470120EEE70120ECE70120EAE700BFB1
:100DF000003C024000380240E8710008B47300086B
:100E00001400002008000020014B1868704700BF44
:100E10001400002000B583B08C461946134652B129
:100E2000074A53B10193009263460246054800F019
:100E300079F800F00DF8044AF3E7034BF2E700BF3E
:100E40001872000828720008F0730008FEE700001E
:100E500008B5034800F080F80120FFF7F7FF00BF56
:100E60005872000808B503460C4A12685AB10B4A7A
:100E70001068033323F003030344094A934206D85E
:100E8000064A136008BD054A06491160EFE702F003
:100E9000ADFD0C2303604FF0FF30F3E7E0010020CD
:100EA00000FC02208002002001230360014B0B6044
:100EB000704700BF0C0000202DE9F04385B00446C8
:100EC0000F4643563BBB042528462146ABBE05468C
:100ED000384605B0BDE8F08314F901CB03F11002E8
:100EE0006A4402F810CC0133AB42F5D310336B44A3
:100EF000002203F8102C4FF00408E946404649460A
:100F0000ABBE8046761B002EE2D03546102E28BFA1
:100F100010250023E8E70E46F5E708B5FFF7CCFFFC
:100F200008BD00000FB400B583B004AB53F8042B28
:100F300001938021074802F03FFD002804DC03B044
:100F40005DF804EB04B0704701460248FFF7E5FF87
:100F5000F5E700BFEC01002010B5044602F0A0FD4B
:100F600001462046FFF7D9FF01210248FFF7D5FFD0
:100F700010BD00BF04730008F8B504460D461746BF
:100F80001E462748FFF7CEFF21682648FFF7CAFF15
:100F900061682548FFF7C6FFA1682448FFF7C2FF34
:100FA000E1682348FFF7BEFF21692248FFF7BAFF37
:100FB00061692148FFF7B6FFA1692048FFF7B2FF3A
:100FC000E1691F48FFF7AEFF1E48FFF7ABFF294658
:100FD0001D48FFF7A7FF1D4CE16A1D48FFF7A2FF60
:100FE000216B1C48FFF79EFFE16B1B48FFF79AFF40
:100FF00015F0800F0AD115F4004F0CD11748FFF7F8
:1010000091FF06991648FFF78DFFF8BD3946154840
:10101000FFF788FFEFE731461348FFF783FFEDE75F
:101020006C7200087C7200088C7200089C720008C8
:10103000AC720008BC720008CC720008DC720008B8
:10104000EC720008FC7200080873000800ED00E074
:1010500018730008287300083873000868730008C4
:1010600070730008487300085873000883691A8871
:101070008A4201D0002070470268033A012A01D950
:1010800000207047023383610120704708B500F0EB
:1010900009F8024A024B9A6008BD00BF0000000830
:1010A00000ED00E0024B4FF000629A60704700BF15
:1010B00000ED00E0224B9B6803F00C03042B14D0DE
:1010C000082B16D01BB11F4B1F4A1A6002E01D4BA4
:1010D0001D4A1A601A4B9B68C3F303131B4AD15C69
:1010E000184A1368CB4013607047164B184A1A60B1
:1010F000F0E7134B59685A6802F03F0211F4800F71
:1011000013D0134BB3FBF2F30D4A5268C2F38812AB
:1011100002FB03F30A4A5268C2F301420132520051
:10112000B3FBF2F3074A1360D4E7074BB3FBF2F3C8
:10113000034A5268C2F3881202FB03F3EAE700BFD6
:1011400000380240140000200024F400B4730008AA
:1011500000127A0030B595B000240194224B1A6C2D
:1011600042F080521A641B6C03F080530193019B80
:1011700002941E4B1A6842F440421A601B6803F442
:1011800040430293029B012308934FF48033099359
:101190004FF480030F93082310934FF4A873119317
:1011A00002251295072313930E9508A8FFF730FA2E
:1011B0000F230393049505944FF4A05306934FF423
:1011C00080530793052103A8FFF70CFDFFF71CFED2
:1011D000074BA3FB00308009FFF7E8F90420FFF775
:1011E000F9F915B030BD00BF003802400070004072
:1011F000D34D621008B5FFF749F9FFF7ABFFFFF7D2
:1012000059FF08BD08B50A4601460248FFF78AFEA5
:10121000FEE700BFC47300082DE9F04184B000AFC1
:1012200005460C46164688000730C0086A46A2EB01
:10123000C0029546E84629806E800A46281D00F0C7
:1012400085FEBB6A3246214605F10C0000F07EFEA9
:10125000FB6A2246214605F1140000F077FE05F1F5
:101260001C063B6B22462146304600F06FFE7B6B2E
:101270000122214605F1240000F068FEBB6B01222B
:10128000214607F1080000F061FE43462246012195
:10129000384600F05BFE394607F1080000F0B8FB65
:1012A00004463246394607F1080000F07BFC204333
:1012B00040B21037BD46BDE8F0812DE9F0478CB053
:1012C00000AF05460C4601888A000732D2086B46FB
:1012D000A3EBC2039D466846A0EBC20295466E464C
:1012E00001FB01F29200073222F00702ADEB020D82
:1012F000EA46ADEB020DE846ADEB020DE9460122F0
:1013000007F1280000F022FE33460122298807F168
:10131000200000F01BFE23460122698807F1180017
:1013200000F014FE298853460A4607F1100000F029
:101330000DFE298843460A4607F1080000F006FE24
:10134000A84638F8041B4B460A46384600F0FEFD16
:1013500005F1240607F128023146404600F022FC40
:10136000044607F1200207F1180105F10C0000F016
:1013700019FC044364B2324607F1200107F128004A
:1013800000F0E8FD044364B205F1140607F1100211
:101390003146404600F006FC044364B207F1080100
:1013A000404600F035FB044364B23A4607F10801B9
:1013B00007F1100000F0F6FB044364B2324605F179
:1013C0001C01384600F0C6FD204340B23037BD4610
:1013D000BDE8F0872DE9F04FC3B000AF04460D46DD
:1013E000BA62028801FB02FC4FEA8C0C0CF1070C7C
:1013F0002CF0070CADEB0C0DEB468E000736F60813
:10140000ABEBC6008546EA4601FB01F080000730E1
:1014100020F00700ADEB000DE946ADEB0C0DC7F871
:1014200024D0ADEB0C0DC7F820D0ADEB0C0DC7F8F8
:101430001CD0ADEB000DC7F818D0ADEB000DC7F810
:1014400014D0ADEB000DC7F810D06846A0EBC60075
:101450008546C7F80CD0A0EBC6008546C7F808D073
:1014600090000730C0086E46A6EBC006B546C7F828
:1014700004D0A6EBC0008546E84602FB02F08000DF
:10148000073020F00700ADEB000DC7F844D0ADEBFE
:10149000000D6E46ADEB000DC7F840D0ADEB000D72
:1014A000C7F83CD0ADEB000DC7F838D0ADEB000D60
:1014B000C7F834D0ADEB0C0DC7F830D0ADEB000D54
:1014C000C7F82CD007F5807000F040FD5B462A4637
:1014D000218807F1F80000F039FDBB6A0122294696
:1014E00007F1F00000F032FDD7F830310122294633
:1014F00007F1E80000F02AFD53462A46012107F1D2
:10150000E00000F023FD4B462A46294607F1D800AB
:1015100000F01CFD7B6A2A46218807F1D00000F00C
:1015200015FD3B6A2288294607F1C80000F00EFD30
:10153000FB692A46218807F1C00000F007FDBB695E
:101540002A46294607F1B80000F000FD7B692A46CB
:10155000294607F1B00000F0F9FC3B692A4629460C
:1015600007F1A80000F0F2FCFB680122294607F110
:10157000A00000F0EBFCBB680122294607F19800AF
:1015800000F0E4FC7B680122218807F1900000F064
:10159000DDFC002306E0A26A52F8232048F823204D
:1015A00001339BB221889942F5D84346012207F1C5
:1015B000880000F0CBFC21887B6C0A4607F1800094
:1015C00000F0C4FC002307E001FB03314FF07E5222
:1015D00046F8212001339BB221889942F4D8334642
:1015E0000A4607F1780000F0B1FC21883B6C0A46FE
:1015F00007F1700000F0AAFC2188FB6B0A4607F196
:10160000680000F0A3FC2188BB6B0A4607F160006C
:1016100000F09CFC21887B6B0A4607F1580000F023
:1016200095FC3B6B2A46218807F1500000F08EFCA8
:10163000254635F8141BFB6A0A4607F1480000F0FE
:1016400085FC07F1E00107F1E80000F0E1F906464A
:1016500007F1D80207F1E00107F1E80000F0A2FA73
:10166000064376B207F1F80107F5807000F0D0F973
:10167000064376B207F1C00207F1F801284600F0F0
:1016800091FA064376B207F1B80207F1C00107F5F7
:10169000807000F087FA064376B207F1B00207F1D6
:1016A000D80107F1B80000F055FC064376B207F107
:1016B000A80107F1B00000F029FB064376B207F15C
:1016C000D00207F1A80107F1C00000F06BFA064351
:1016D00076B2243407F1A002214607F5807000F0AD
:1016E00061FA064376B207F1980207F1A00107F10B
:1016F000F00000F0E5F9064376B207F1900207F139
:10170000980107F1D00000F04DFA064376B2224668
:1017100007F1900107F1880000F01CFC46EA000484
:1017200064B207F1800207F5807107F1D00000F084
:1017300039FA044364B207F1700207F1800107F13E
:10174000780000F0BDF9044364B207F1680107F1C5
:10175000700000F05DF9044364B207F160022946AD
:1017600007F1700000F01EFA044364B207F158025A
:1017700007F1680107F1600000F014FA044364B255
:1017800007F1C80107F1D00000F042F9044364B248
:1017900007F1500207F1D80107F1D00000F002FA7A
:1017A000044364B207F1480207F1C80107F1500091
:1017B00000F0F8F9044364B22A4607F1480107F142
:1017C000580000F0C7FB204340B207F58677BD46BE
:1017D000BDE8F08F70B505462248FFF7A3FB22480D
:1017E000FFF7A0FB00262BE02048FFF79BFB2CE037
:1017F0006A6806FB034352F8230000F081FD0246AD
:101800000B461B48FFF78EFB01346B88A3420FDDAC
:101810005A1EA242ECDD6A6806FB034352F823001D
:1018200000F06EFD02460B461248FFF77BFBEBE72C
:101830002B88013BB3420DDD0F48FFF773FB0136E8
:101840002B88B3420ADD002ECEDC0748FFF76AFB87
:101850000024DAE70948FFF765FBF0E70848FFF7DF
:1018600061FB70BDF4730008007400080C7400087C
:101870001074000804740008187400081C74000830
:1018800020740008F0B5A9B0DFF828C10DF1640E8E
:101890009CE80F008EE80F0017AF0CF1100393E8DF
:1018A000030087E8030013AC0CF118030FCB84E8A6
:1018B0000F000FAD0CF128030FCB85E80F000026B9
:1018C0000D960E960BAB0CF1380C9CE8030083E8E8
:1018D000030004930DAB03930295019400977346A4
:1018E000012202211DA8FFF797FC0446324924A8D3
:1018F000FFF770FF21463148FFF714FB304B0A9386
:101900000AA91DA8FFF7D9FC07462E4D294626A88F
:10191000FFF760FF2C4C214622A8FFF75BFF3946FA
:101920002A48FFF7FFFA2A4B09934FF07E5307939B
:101930000896284B069306AF009707AB09AA01212A
:101940001DA8FFF747FD0646294626A8FFF742FFD8
:10195000214622A8FFF73EFF31461F48FFF7E2FA73
:101960001E4B0A930AA91DA8FFF7A7FC06462946A5
:1019700026A8FFF72FFF214622A8FFF72BFF3146AD
:101980001748FFF7CFFA174B0993009707AB09AA3F
:1019900001211DA8FFF71EFD0646294626A8FFF7D0
:1019A00019FF214622A8FFF715FF31460E48FFF721
:1019B000B9FAFEE7C8740008247400082874000807
:1019C000CDCC1C414C7400085474000858740008B5
:1019D0009A9901C20000A04174740008295CEF418B
:1019E000907400089A9931C1AC74000870470000E7
:1019F000034B1B681BB1024A1368013B136070471D
:101A00006C02002008B5FEF75BFDFFF7F1FF08BD93
:101A10002DE9F04F03884D8847684A6840889D4209
:101A200083B049D1B1F800E0864545D14FEA9E0820
:101A3000A9000EF0030E05EB450608FB01F94FEA7D
:101A40008E0394464FEA890902EB010A4FEA081B0C
:101A50000193B6002D016346B8F1000F17D007F1CE
:101A60001002404652F8104C1C6052F80C4C5C506E
:101A700052F8084C43F81140013852F8044C9C517C
:101A800002F110022B44EDD15F4409EB0C03BEF1CF
:101A9000000F09D07246384650F8044B1C60013ADA
:101AA0000B44F9D1019B1F440CF1040CD445D2D155
:101AB000002003B0BDE8F08F6FF00200F9E700BF2F
:101AC0002DE9F04FD1E9004B0368D0F804A0D2F81B
:101AD0000490A34283B062D1126893425FD103881D
:101AE000478807FB03F7BB08019335D00AF11006BE
:101AF0000BF1100509F11004984655F8101C56F822
:101B0000100C00F059FC44F8100C55F80C1C56F859
:101B10000C0C00F051FC44F80C0C55F8081C56F85D
:101B2000080C00F049FC44F8080C55F8041C56F861
:101B3000040C00F041FCB8F1010844F8040C05F174
:101B4000100506F1100604F11004D6D1019B4FEAEE
:101B50000318C244C344C14417F003071BD0DBF889
:101B60000010DAF8000000F027FC013FC9F800007F
:101B700011D0DBF80410DAF8040000F01DFC012F8E
:101B8000C9F8040007D0DBF80810DAF8080000F004
:101B900013FCC9F80800002003B0BDE8F08F6FF017
:101BA0000200F9E72DE9F04F47880B884468008868
:101BB0004E68D2F804C04D888FB0BB42089040F008
:101BC0009F801788874240F09B80B2F80280A8452A
:101BD00040F096804FEA081BC8EB8872301D0D91CB
:101BE00099084FEA8807920005910C9004EB0110C8
:101BF0000BFB01F108EB48080490079104F1100079
:101C00000CEB07010B9203F003029B00039002917F
:101C10004FEA880806920A93039B029A103B0993A5
:101C20000B9B134400930C9B0193059B002B5FD0EF
:101C3000039D994634464FF0000A216855F8100C70
:101C400000F0C4FC514600F0B9FBE159824655F85A
:101C50000C0C00F0BBFC514600F0B0FB54F8171020
:101C6000824655F8080C00F0B1FC514600F0A6FB86
:101C700054F80810824655F8040C00F0A7FC5146B1
:101C800000F09CFBB9F101095C44824605F11005A6
:101C9000D3D1079B049D1E44069B6BB11C46316843
:101CA00055F8040B00F092FC0146504600F086FB0C
:101CB000013C3E448246F2D1019E009B321D43F816
:101CC00004AB0192029A00939342AED11346049A58
:101CD0003B4411460293039A0A9B19441A44089BF9
:101CE0000491013B0392089306D00D9B5E6893E735
:101CF000099D4FF0000ACFE718460FB0BDE8F08FFE
:101D00006FF002000FB0BDE8F08F00BF2DE9F04F7B
:101D10004388B0F800804C68D0F804908DB09845A6
:101D20000793099440F005810A884B88934240F05C
:101D30000081984540F0FD800B90B8F1000F21D054
:101D400020464FF07E57B8F1010640F8047B19D0C9
:101D50000125B200841800214FEA850A01F03AFEFD
:101D6000524600212046002D00F0E88001F032FEAE
:101D700004EB0A00013E44F8257000F1040005F16F
:101D80000105E6D1079A002A00F0CE80930049466B
:101D90001944039308910193191D099BCDF80890EC
:101DA000CDE9052300230A910093089B019AA3EB38
:101DB000020B029B1D68009B984500F0B5801E46F3
:101DC000029C04950027DDF80CA008E0284600F0EE
:101DD000B9FD00B12F4601364645544413D025685D
:101DE0000021284600F0AEFD05F1004939460028E3
:101DF000ECD1484600F0A6FD0028ECD0013646455F
:101E00004F465444EBD138460021049D00F072FD4A
:101E1000002840F089800021284600F06BFD002852
:101E200040F08280059E029C2068294600F082FCDA
:101E3000013E44F8040BF7D1DDE906462068294647
:101E400000F078FC013E44F8040BF7D1009B099F99
:101E50009B000493009B9E424AD05C46DDF814A090
:101E600054F80459DDF8089059F8041B284600F08E
:101E7000ADFB014654F8040F00F09EFABAF1010AD6
:101E80002060F1D1019BDDE906A99B443C1F5AF873
:101E9000041B284600F09AFB014654F8040F00F09A
:101EA0008BFAB9F101092060F1D1039B1F4401367F
:101EB000049BB0459B44CDD1009B0A9A013300930B
:101EC000029B13440293019B039A043B0193069BDC
:101ED00013440693059B013B05937FF466AF2846A8
:101EE000002100F007FD40B905980DB0BDE8F08F66
:101EF000019B9B44039B1F44D9E70B9B5C68079B9A
:101F00002068002103FB08F800F0F4FC0028EBD067
:101F10000025059E04E054F8040F00F0EBFC28B106
:101F20000136B0452946F6D16FF004000DB0BDE88A
:101F3000F08F6FF002000DB0BDE8F08F2046013E3B
:101F400040F8047B7FF404AF1CE700BF01804280AF
:101F5000436070472DE9F04FD1E9004B0368D0F89A
:101F600004A0D2F80490A34283B062D112689342D5
:101F70005FD10388478807FB03F7BB08019335D07F
:101F80000AF110060BF1100509F11004984655F8F6
:101F9000101C56F8100C00F011FA44F8100C55F80B
:101FA0000C1C56F80C0C00F009FA44F80C0C55F80F
:101FB000081C56F8080C00F001FA44F8080C55F813
:101FC000041C56F8040C00F0F9F9B8F1010844F8C3
:101FD000040C05F1100506F1100604F11004D6D129
:101FE000019B4FEA0318C244C344C14417F00307DE
:101FF0001BD0DAF80010DBF8000000F0DFF9013F39
:10200000C9F8000011D0DBF80410DAF8040000F081
:10201000D5F9012FC9F8040007D0DBF80810DAF869
:10202000080000F0CBF9C9F80800002003B0BDE8B3
:10203000F08F6FF00200F9E781F0004102E000BF8D
:1020400083F0004330B54FEA41044FEA430594EA78
:10205000050F08BF90EA020F1FBF54EA000C55EAB3
:10206000020C7FEA645C7FEA655C00F0E2804FEA84
:102070005454D4EB5555B8BF6D420CDD2C4480EA66
:10208000020281EA030382EA000083EA010180EA96
:10209000020281EA0303362D88BF30BD11F0004FE4
:1020A0004FEA01314FF4801C4CEA113102D040421A
:1020B00061EB410113F0004F4FEA03334CEA133355
:1020C00002D0524263EB430394EA050F00F0A7806D
:1020D000A4F10104D5F1200E0DDB02FA0EFC22FA68
:1020E00005F2801841F1000103FA0EF2801843FA5C
:1020F00005F359410EE0A5F120050EF1200E012A4D
:1021000003FA0EFC28BF4CF0020C43FA05F3C0188A
:1021100051EBE37101F0004507D54FF0000EDCF103
:10212000000C7EEB00006EEB0101B1F5801F1BD3AC
:10213000B1F5001F0CD349085FEA30004FEA3C0CB0
:1021400004F101044FEA445212F5800F80F09A80A6
:10215000BCF1004F08BF5FEA500C50F1000041EBAA
:10216000045141EA050130BD5FEA4C0C404141EBAE
:102170000101013C28BFB1F5801FE9D291F0000FA9
:1021800004BF01460020B1FA81F308BF2033A3F158
:102190000B03B3F120020CDA0C3208DD02F1140C4F
:1021A000C2F10C0201FA0CF021FA02F10CE002F18A
:1021B0001402D8BFC2F1200C01FA02F120FA0CFC83
:1021C000DCBF41EA0C019040E41AA2BF01EB0451CC
:1021D000294330BD6FEA04041F3C1CDA0C340EDCCA
:1021E00004F11404C4F1200220FA04F001FA02F30D
:1021F00040EA030021FA04F345EA030130BDC4F1CB
:102200000C04C4F1200220FA02F001FA04F340EABF
:102210000300294630BD21FA04F0294630BD94F070
:10222000000F83F4801306BF81F480110134013D57
:102230004EE77FEA645C18BF7FEA655C29D094EAC8
:10224000050F08BF90EA020F05D054EA000C04BF46
:102250001946104630BD91EA030F1EBF0021002031
:1022600030BD5FEA545C05D14000494128BF41F0D0
:10227000004130BD14F580043CBF01F5801130BD34
:1022800001F0004545F0FE4141F470014FF00000BF
:1022900030BD7FEA645C1ABF194610467FEA655C70
:1022A0001CBF0B46024650EA013406BF52EA033512
:1022B00091EA030F41F4002130BD00BF90F0000F00
:1022C00004BF0021704730B54FF4806404F132043C
:1022D0004FF000054FF0000150E700BF90F0000FF5
:1022E00004BF0021704730B54FF4806404F132041C
:1022F00010F0004548BF40424FF000013EE700BFEC
:1023000042004FEAE2014FEA31014FEA02701FBF7B
:1023100012F07F4393F07F4F81F06051704732F0AD
:102320007F4208BF704793F07F4F04BF41F4002104
:10233000704730B54FF4607401F0004521F0004162
:102340001CE700BF50EA010208BF704730B54FF0EC
:1023500000050AE050EA010208BF704730B511F0ED
:10236000004502D5404261EB41014FF4806404F125
:1023700032045FEA915C3FF4D8AE4FF003025FEAAB
:10238000DC0C18BF03325FEADC0C18BF033202EB2F
:10239000DC02C2F1200300FA03FC20FA02F001FA89
:1023A00003FE40EA0E0021FA02F11444BDE600BF2C
:1023B00080F0004002E000BF81F0004142001FBFFA
:1023C0005FEA410392EA030F7FEA226C7FEA236C03
:1023D0006AD04FEA1262D2EB1363C1BFD2184140F8
:1023E00048404140B8BF5B42192B88BF704710F08E
:1023F000004F40F4000020F07F4018BF404211F031
:10240000004F41F4000121F07F4118BF494292EA98
:10241000030F3FD0A2F1010241FA03FC10EB0C00C4
:10242000C3F1200301FA03F100F0004302D5494251
:1024300060EB4000B0F5000F13D3B0F1807F06D3FE
:1024400040084FEA310102F10102FE2A51D2B1F1F6
:10245000004F40EBC25008BF20F0010040EA0300EB
:102460007047490040EB0000013A28BFB0F5000F6B
:10247000EDD2B0FA80FCACF1080CB2EB0C0200FA21
:102480000CF0AABF00EBC25052421843BCBFD04070
:102490001843704792F0000F81F4000106BF80F4EA
:1024A00000000132013BB5E74FEA41037FEA226CAD
:1024B00018BF7FEA236C21D092EA030F04D092F078
:1024C000000F08BF0846704790EA010F1CBF0020AC
:1024D000704712F07F4F04D1400028BF40F0004009
:1024E000704712F100723CBF00F50000704700F029
:1024F000004343F0FE4040F4000070477FEA226250
:1025000016BF08467FEA23630146420206BF5FEA20
:10251000412390EA010F40F4800070474FF0000320
:1025200004E000BF10F0004348BF40425FEA000CE7
:1025300008BF704743F0964301464FF000001CE08F
:1025400050EA010208BF70474FF000030AE000BFE5
:1025500050EA010208BF704711F0004302D5404223
:1025600061EB41015FEA010C02BF84460146002095
:1025700043F0B64308BFA3F18053A3F50003BCFAB0
:102580008CF2083AA3EBC25310DB01FA02FC63445D
:1025900000FA02FCC2F12002BCF1004F20FA02F264
:1025A00043EB020008BF20F00100704702F1200257
:1025B00001FA02FCC2F1200250EA4C0021FA02F2B8
:1025C00043EB020008BF20EADC7070474FF0FF0CBD
:1025D0001CEAD0521EBF1CEAD15392EA0C0F93EAB8
:1025E0000C0F6FD01A4480EA010C400218BF5FEA5A
:1025F00041211ED04FF0006343EA501043EA5111CD
:10260000A0FB01310CF00040B1F5000F3EBF4900C6
:1026100041EAD3715B0040EA010062F17F02FD2ACA
:102620001DD8B3F1004F40EBC25008BF20F00100AD
:10263000704790F0000F0CF0004C08BF49024CEAC4
:10264000502040EA51207F3AC2BFD2F1FF0340EA56
:10265000C250704740F400004FF00003013A5DDCC7
:1026600012F1190FDCBF00F000407047C2F1000208
:10267000410021FA02F1C2F1200200FA02FC5FEAF5
:10268000310040F1000053EA4C0308BF20EADC703F
:10269000704792F0000F00F0004C02BF400010F4B1
:1026A000000F013AF9D040EA0C0093F0000F01F05E
:1026B000004C02BF490011F4000F013BF9D041EA80
:1026C0000C018FE70CEAD15392EA0C0F18BF93EA82
:1026D0000C0F0AD030F0004C18BF31F0004CD8D1AC
:1026E00080EA010000F00040704790F0000F17BF33
:1026F00090F0004F084691F0000F91F0004F14D079
:1027000092EA0C0F01D142020FD193EA0C0F03D1D0
:102710004B0218BF084608D180EA010000F00040D3
:1027200040F0FE4040F40000704740F0FE4040F4AE
:10273000400070474FF0FF0C1CEAD0521EBF1CEA4D
:10274000D15392EA0C0F93EA0C0F69D0A2EB03026B
:1027500080EA010C49024FEA402037D04FF0805305
:1027600043EA111143EA10130CF000408B4238BFCA
:102770005B0042F17D024FF4000C8B4224BF5B1AD8
:1027800040EA0C00B3EB510F24BFA3EB510340EA26
:102790005C00B3EB910F24BFA3EB910340EA9C00D4
:1027A000B3EBD10F24BFA3EBD10340EADC001B0144
:1027B00018BF5FEA1C1CE0D1FD2A3FF650AF8B42E8
:1027C00040EBC25008BF20F0010070470CF0004CF5
:1027D0004CEA50207F32C2BFD2F1FF0340EAC25020
:1027E000704740F400004FF00003013A37E792F0E1
:1027F000000F00F0004C02BF400010F4000F013A3F
:10280000F9D040EA0C0093F0000F01F0004C02BF39
:10281000490011F4000F013BF9D041EA0C0195E7A2
:102820000CEAD15392EA0C0F08D142027FF47DAF3B
:1028300093EA0C0F7FF470AF084676E793EA0C0F2B
:1028400004D14B023FF44CAF08466EE730F0004C29
:1028500018BF31F0004CCAD130F000427FF45CAFB9
:1028600031F000437FF43CAF5FE700BF4FF0FF3C27
:1028700006E000BF4FF0010C02E000BF4FF0010C7A
:102880004DF804CD4FEA40024FEA41037FEA226C43
:1028900018BF7FEA236C11D001B052EA530C18BF65
:1028A00090EA010F58BFB2EB030088BFC81738BFCA
:1028B0006FEAE17018BF40F0010070477FEA226CB8
:1028C00002D15FEA402C05D17FEA236CE4D15FEAB4
:1028D000412CE1D05DF8040B704700BF84460846E8
:1028E0006146FFE70FB5FFF7C9FF002848BF10F1A9
:1028F000000F0FBD4DF808EDFFF7F4FF0CBF0120EE
:1029000000205DF808FB00BF4DF808EDFFF7EAFF77
:1029100034BF012000205DF808FB00BF4DF808ED32
:10292000FFF7E0FF94BF012000205DF808FB00BF27
:102930004DF808EDFFF7D2FF94BF012000205DF8AD
:1029400008FB00BF4DF808EDFFF7C8FF34BF0120BA
:1029500000205DF808FB00BF53B94AB9002908BF41
:1029600000281CBF4FF0FF314FF0FF3000F070B96E
:10297000ADF1080C6DE904CE00F006F8DDF804E0D6
:10298000DDE9022304B070472DE9F047089E0D46AB
:1029900004460F46002B4AD18A42944665D9B2FAC2
:1029A00082F343B102FA03FCC3F120029F4020FAF4
:1029B00002F217439C404FEA1C4E1FFA8CF5B7FBFE
:1029C000FEF1220C0EFB117742EA074201FB05F0F3
:1029D00090420AD91CEB020201F1FF3780F01B8103
:1029E000904240F2188102396244121AA4B2B2FB3A
:1029F000FEF00EFB102244EA024400FB05F5A5425E
:102A00000AD91CEB040400F1FF3280F00681A542D4
:102A100040F203816444023840EA0140641B002113
:102A20001EB1DC400023C6E90043BDE8F0878B42BD
:102A300008D9002E00F0EC800021C6E90005084608
:102A4000BDE8F087B3FA83F1002949D1AB4202D344
:102A5000824200F2F780841A65EB030201201746D8
:102A6000002EE2D0C6E90047DFE702B9FFDEB2FA86
:102A700082F3002B40F08F808A1A4FEA1C471FFA1E
:102A80008CFE0121B2FBF7F507FB1520220C42EA70
:102A900000420EFB05F0904208D91CEB020205F142
:102AA000FF3802D2904200F2CA804546121AA4B200
:102AB000B2FBF7F007FB102244EA02440EFB00FED3
:102AC000A64508D91CEB040400F1FF3202D2A6454A
:102AD00000F2BA801046A4EB0E0440EA05409FE7DE
:102AE000C1F120078B4022FA07FC4CEA030C05FADF
:102AF00001F420FA07F3FD40234300FA01F94FEAFD
:102B00001C401FFA8CFEB5FBF0F81C0C00FB18559E
:102B100044EA054408FB0EF5A54202FA01F20BD97E
:102B20001CEB040408F1FF3A80F08780A54240F2D4
:102B30008480A8F102086444641B9DB2B4FBF0F3E6
:102B400000FB134445EA044403FB0EFEA64508D9E6
:102B50001CEB040403F1FF306BD2A64569D9023B9C
:102B6000644443EA0840A0FB0283A4EB0E049C42A9
:102B7000C6461D4655D352D056B1B9EB0E0364EB91
:102B8000050404FA07F7CB40CC401F43C6E90074A4
:102B90000021BDE8F087C3F1200102FA03FC20FA0E
:102BA00001F225FA01F19D402A434FEA1C471FFA22
:102BB0008CFEB1FBF7F007FB1015110C41EA054143
:102BC00000FB0EF58D4204FA03F408D91CEB010159
:102BD00000F1FF382FD28D422DD902386144491BB4
:102BE00092B2B1FBF7F507FB151142EA014205FB72
:102BF0000EF1914208D91CEB020205F1FF3816D202
:102C0000914214D9023D6244521A45EA004139E723
:102C10003146304609E73946E7E61046FCE6C1454D
:102C2000AAD2B8EB020E63EB0C050138A4E74546C7
:102C3000EAE7034695E74046D1E7D0467CE7023D08
:102C4000624433E708460BE76444023843E700BFB9
:102C5000704700BF2DE9F04788B0002B1F4614468F
:102C6000B8BF03F10043129A109DDDF84CA0B6BF27
:102C70001F4600232D231370149B23F02008B8F166
:102C8000460F05D0B8F1450F00D10135022300E011
:102C9000032307AA049206AACDE902A2CDE90035D2
:102CA00022463B4600F090FFB8F1470F064602D19E
:102CB000119BDB0722D5B8F1460F06EB050910D1B1
:102CC0003378302B0AD1002200232046394604F005
:102CD00059F918B9C5F10105CAF80050DAF8003001
:102CE0009944002200232046394604F04BF908B1EC
:102CF000CDF81C903022079B4B4507D3079B159AB4
:102D00009B1B3046136008B0BDE8F087591C079143
:102D10001A70F0E7F7B503460029B8BF494203F837
:102D2000022BB4BF2D222B22092942702ADD0DF17E
:102D3000070217460A26944691FBF6F506FB151482
:102D400030340CF8014C0C46632C02F1FF3229465A
:102D5000F1DC3031ACF1020402F8011C411C2246C6
:102D6000BA420AD30DF10902A2EB0C02BC4288BFA1
:102D700000221344181A03B0F0BD12F8015B01F8E9
:102D8000015FEDE7302330318370C170031DF1E73F
:102D90002DE9F04F91B00C46DDF8688016461F46CD
:102DA000054600F01FFE03680993184600F078FE00
:102DB00000230E93D8F800300A90073323F007035E
:102DC00003F1080294F81890D4F800B0C8F8002075
:102DD000D3E900A852464346C4E9122328F0004331
:102DE0000B930B999C4B4FF0FF32504604F0FCF8CC
:102DF00070BB994B0B994FF0FF32504604F0D6F858
:102E000030BB002200235046414604F0C5F810B103
:102E10002D2384F84330914A914BB9F1470F94BF69
:102E200090469846032323612BF0040323604FF060
:102E3000000A009733460FAA2146284600F0D4F92D
:102E4000013040F08F804FF0FF3011B0BDE8F08FBF
:102E5000524643465046414604F0C6F840B1B8F1E8
:102E6000000FBCBF2D2384F843307E4A7E4BD4E74D
:102E700063685A1C09F0DF0142D106236360002217
:102E800006920EAACDE904920DAA4BF48063039238
:102E90000DF13302CDE9013223606368009352469D
:102EA000434628460B91FFF7D5FE0B9947298046EC
:102EB0000D9908D1C81C02DB6368994240DDA9F175
:102EC00002095FFA89F9B9F1650F1FD801394A463D
:102ED00004F150000D91FFF71DFF0E9A1318012AFF
:102EE0008246236102DC2268D20701D501332361C7
:102EF0009DF83330002B9CD02D2384F8433098E785
:102F00004729BCD1002BBAD10123B7E7B9F1660F2D
:102F100018D1002963680BDD216113B92268D0073D
:102F200002D501330B442361A1654FF0000ADFE7AE
:102F300013B92268D20701D50233F4E70123F2E77F
:102F40004FF067090E9B994205DB23682161D80782
:102F5000EAD54B1CE7E70029D4BFC1F102020122E8
:102F60001344E0E723685A0507D4236942463146F3
:102F70002846B84701302BD165E7B9F1650F40F21B
:102F8000DC80D4E912010022002303F0FBFF0028BB
:102F900033D0364A012331462846B84701303FF442
:102FA00052AFDDE90D239A4202DB2368D8070FD523
:102FB000DDE9092331462846B84701303FF443AFE5
:102FC0004FF0000804F11A090E9B013B434509DC50
:102FD00023689B0700F10381E0680F9B9842B8BF0C
:102FE000184632E701234A4631462846B8470130A1
:102FF0003FF429AF08F10108E6E70D9B002B37DC11
:103000001A4A012331462846B84701303FF41BAF26
:10301000DDE90D32134302D12368D907D8D5DDE9A4
:10302000092331462846B84701303FF40CAF4FF032
:10303000000904F11A0A0D9B5B424B4501DC0E9B13
:1030400094E70123524631462846B84701303FF401
:10305000FAAE09F10109EEE7FFFFEF7F08750008FE
:103060000C75000810750008147500081875000824
:103070000E9AA36D9A42A8BF1A46002A914637DCE1
:103080004FF0000B29EAE97904F11A02D4F858A0AC
:10309000AAEB09035B4533DCDDE90D239A423BDBF8
:1030A0002368DA0738D4DDE90D32A2EB0309A2EB7D
:1030B0000A029145A8BF9146B9F1000F34DC4FF0E8
:1030C000000829EAE97904F11A0ADDE90D239B1ABF
:1030D000A3EB090343457FF77BAF012352463146FB
:1030E0002846B84701303FF4AEAE08F10108ECE7DE
:1030F0001346314642462846B8470130C0D1A2E6C1
:103100000123314628460B92B84701303FF49BAE6D
:103110000B9A0BF1010BB9E7DDE90923314628468B
:10312000B8470130BFD18EE64B4608EB0A02314664
:103130002846B8470130C2D185E60E9A012A01DC43
:10314000DB0739D50123424631462846B8470130CE
:103150003FF479AEDDE9092331462846B84701300E
:103160003FF471AED4E9120100220023DDF838905B
:1031700003F008FFD8B909F1FF3308F10102314625
:103180002846B84701300ED15DE601234A46314654
:103190002846B84701303FF456AE08F101080E9BAF
:1031A000013B4345F1DC534604F15002DFE64FF0AA
:1031B000000804F11A09F2E701234246DFE7012380
:1031C0004A4631462846B84701303FF43CAE08F144
:1031D0000108E3680F995B1A4345F0DCFCE64FF009
:1031E000000804F11909F4E72DE9F047164699465D
:1031F0008A680B69DDF820809342B8BF13463360BC
:1032000091F8432007460C460AB101333360236826
:10321000990642BF336802333360256815F006050E
:1032200006D104F1190AE36832689B1AAB4226DC26
:1032300094F84320131E226818BF012392062BD452
:1032400004F1430249463846C04701301ED0236886
:10325000226903F00603042B02BFE5683368ED1A08
:10326000A3680CBF25EAE57500259342C4BF9B1AED
:10327000ED1800261A34B5421AD1002008E00123C7
:10328000524649463846C047013003D14FF0FF301F
:10329000BDE8F0870135C6E7E1185A1C302081F8F7
:1032A0004300224494F8451082F843100233C7E7E4
:1032B0000123224649463846C0470130E6D0013650
:1032C000D9E700002DE9FF470F7E0C9D782F91462E
:1032D00080460C469A4601F1430207D8622F0AD86D
:1032E000002F00F0D480582F00F0C08004F1420578
:1032F00084F842703AE0A7F16303152BF6D801A1D8
:1033000051F823F05D33000871330008ED320008F6
:10331000ED320008ED320008ED320008713300088C
:10332000ED320008ED320008ED320008ED32000801
:10333000753400089D3300082F340008ED32000872
:10334000ED32000897340008ED3200089D33000884
:10335000ED320008ED320008373400082B681A1DE2
:103360001B682A6004F1420584F8423001239FE083
:1033700020682B68070603F10401296001D51E6847
:1033800003E04606FBD5B3F90060002E03DA2D23D7
:10339000764284F843305A480A2312E02B682068AA
:1033A000191D2960050601D51E6802E04106FBD5FE
:1033B0001E8853486F2F0CBF08230A23002184F86E
:1033C00043106568A560002DA2BF216821F00401AB
:1033D00021600EB9002D4BD01546B6FBF3F103FB6F
:1033E0001167C75D05F8017D3746BB420E46F4D92B
:1033F000082B0BD12368DE0708D523696168994241
:10340000DEBF302305F8013C05F1FF35521B226178
:10341000CDF800A04B4603AA21464046FFF7E4FE44
:1034200001304AD14FF0FF3004B0BDE8F087236887
:1034300043F0200323603348782784F845702368DD
:1034400029681F0651F8046B02D45F0648BFB6B264
:10345000DF0748BF43F02003296048BF23601EB93F
:10346000236823F0200323601023A7E72448E4E720
:103470001546BDE72B6826686169181D286035066A
:103480001B6801D5196002E07006FBD51980002386
:1034900023611546BCE72B681A1D2A601D68626807
:1034A0000021284600F0ACFA08B1401B6060636858
:1034B0002361002384F84330AAE723692A4649465A
:1034C0004046D0470130ADD023689B0713D4E06855
:1034D000039B9842B8BF1846A6E7012332464946E7
:1034E0004046D04701309DD00135E36803995B1A0F
:1034F000AB42F2DCEBE7002504F11906F5E700BF6B
:103500001A7500082B7500082DE9F04F87B0174693
:1035100003938B685A1EB2F5AE7F83BF6FF4AE750E
:103520005B190293002386BF40F25D138B60029308
:103530000B688B46002543F4F0634BF81C3BCDE948
:10354000045580460C465E46AA46A9460195A268E7
:1035500052B13B681B784E2B64D8402B3CD8A3F16A
:103560002B01C8B20E283AD9B9F1000F03D0236855
:1035700023F4807323600AF1FF3ABAF1010F00F2DD
:1035800013815E4500F205810125284607B0BDE89C
:10359000F08FA3F161020D2AE6D801A151F822F0C3
:1035A000DF3600086935000869350008693500080C
:1035B0003F370008173700086935000869350008EB
:1035C000ED360008693500086935000869350008DE
:1035D00069350008A5360008A3F14102DBE70E2992
:1035E000C2D801A050F821F09736000869350008CC
:1035F000973600082B370008693500084536000863
:1036000081360008813600088136000881360008BE
:1036100081360008813600088136000881360008AE
:10362000813600086E2B09D8602BB2D8542B77D086
:10363000592B99D1072D97D1082529E0742B6FD0EC
:10364000792BF6E72168C8051AD5029B21F0800185
:10365000216009F101091BB1013B01320293A26013
:10366000A368013BA3602369013323617B68013BAD
:10367000002B7B6040F384803B6801333B6066E74E
:103680001AEB050F7FF470AF226822F4C07222603B
:1036900006F8013BE4E7226810067FF565AF22F0EB
:1036A0008002F4E7BAF1000F0ED1B9F1000F0ED18C
:1036B000226802F4E061B1F5E06F08D122F4F06213
:1036C00022604FF0010AE3E7BAF1020F55D0012D55
:1036D00002D0042D7FF448AF0135EDB2D8E7BAF13E
:1036E000010F7FF441AF4FF0020AD1E77DB9B9F184
:1036F000000F7FF43CAF226802F4E061B1F5E06FA7
:103700007FF439AF22F4F06222600125C0E7032D77
:10371000E2D0052DDEE7022D7FF426AF0325B7E7C3
:10372000062D7FF421AF0725B2E7226891057FF5CA
:103730001BAF22F420722260CDF80490A8E7226823
:1037400002F4A061B1F5806F06D050057FF50CAF93
:10375000B9F1000F3FF40FAF910558BF019922F462
:10376000F06258BFA9EB010142F4C07258BFCDE925
:10377000041622604FF000098AE74FF0030A87E73A
:10378000D4F8803139464046984700283FF4DFAEF0
:10379000EAE6D4F87C3116F8011D3A4640469847CF
:1037A0002369013B2361ECE66B1E062B25D8022D15
:1037B00036D85E457FF6E8AED4F87C3116F8011DA8
:1037C0003A46404698472369013B2361F1E7029856
:1037D000D4F87C3110F8011D02903A4640469847D3
:1037E0002369013B23610AF1FF3A5FFA8AFABAF1D1
:1037F000020FECD1033DEDB2761B2368DA052FD51D
:103800005B0510D55E457FF6BFAED4F87C3116F867
:10381000011D3A46404698472369013B2361F1E781
:10382000AA460296DFE716F8011C2369652903F111
:10383000FF3306F1FF3523610CD045290AD0D4F8B7
:103840007C313A4640469847236916F8021C013BF2
:10385000B51E2361D4F87C313A46404698472E463F
:10386000256815F0100555D13570236803F4C06341
:10387000B3F5806F1DD1019B4B45A3EB090225D108
:1038800000225946404602F0D7FA039BD4F800C004
:103890001B681CF0020F06460F4603F1040220D0FD
:1038A00003990A601B68C3E90067E3680133E360BA
:1038B0006BE6049B002BE3D005990A232A460131CD
:1038C000404602F03DFB049B059EC21A04F26F13B2
:1038D0009E4228BF04F5B7760F49304600F020F825
:1038E000CEE71CF0040FDBD1DDF80CC0CCF80020D3
:1038F000D3F8008002460B4603F076FB28B1074858
:1039000000F0D6F8C8F80000CFE73046394603F09B
:10391000C9FBF7E7002538E63C750008A6780008E3
:103920000EB400B59CB01DAB029006906FF0004144
:10393000094807910491094953F8042B059100683F
:10394000019302A902F058FB029B00221A701CB0DE
:103950005DF804EB03B07047640000200802FFFF2D
:1039600030B51446002C9BB005461A4605DA8B2369
:1039700003604FF0FF301BB030BD4FF40273ADF861
:103980000C3014BF04F1FF332346029305934FF626
:10399000FF7300910491ADF80E3069461E9B02F052
:1039A0002BFB431CBCBF8B232B60002CE3D0009B64
:1039B00000221A70DFE7000007B5009313460A469D
:1039C000014603480068FFF7CBFF03B05DF804FB36
:1039D0006400002002440346934200D1704703F87C
:1039E000011BF9E70048704758010020014B186897
:1039F000704700BF640000200000000000000000CD
:103A000001F0FF01102A2BDB10F0070F08D010F88F
:103A1000013B013A8B422DD010F0070F42B3F6D193
:103A2000F0B441EA012141EA014122F007047FF0AC
:103A300000070023F0E80256083C85EA010586EA03
:103A4000010685FA47F5A3FA87F586FA47F6A5FA3F
:103A500087F68EB9EED1F0BC01F0FF0102F007024B
:103A600032B110F8013B013A83EA010313B1F8D1F6
:103A70000020704701387047002D06BF35460338D7
:103A8000073815F0010F07D1013015F4807F02BF10
:103A9000013015F4C03F0130F0BC0138704700BF61
:103AA000034613F8012B002AFBD1181A013870477E
:103AB000004870470000C07F2DE9F74F03690C698B
:103AC000A34207467BDB013C01F1140800F1140519
:103AD00005EB8403019358F8243055F82420013372
:103AE0009A424FEA840B08EB8409B2FBF3F62ED31B
:103AF0004FF0000E4046AC46F24650F8042B93B20D
:103B000006FB03E34FEA124E1A0C9BB206FB0E2291
:103B1000AAEB0303DCF800A04FEA124E92B213FAAC
:103B20008AF3C2EB1A4202EB23429BB243EA0243FE
:103B300081454CF8043B4FEA224ADED255F80B305F
:103B40002BB9019B043B9D421A462CD33C6138465D
:103B500001F08AF9002822DB01362946002058F8B6
:103B6000042BD1F800C093B2C31A120C13FA8CF3D1
:103B7000C2EB1C4202EB23429BB243EA0243C14523
:103B800041F8043B4FEA2240E9D255F8242005EBE6
:103B9000840322B9043B9D421A460AD33C61304655
:103BA00003B0BDE8F08F1268043B002ACED1013C7F
:103BB000C9E71268043B002AF0D1013CEBE7002082
:103BC000EEE70000000000002DE9F04FC46999B055
:103BD00016461F46CDE90467DDF89480054674B9A2
:103BE000102000F0D1FD0246E86120B9AA4BEF2178
:103BF000AA48FDF70FF9C0E901440460C460EB690D
:103C0000196851B15A684A60012393408B60284675
:103C100000F0A4FEEB6900221A603B1EB9BF23F03E
:103C2000004305930023C8F80030DDF814909C4B46
:103C3000BCBF0122C8F8002033EA090319D1249A35
:103C400042F20F731360C9F31303334300F0878507
:103C5000269B53B9934B23E0934B03930833269A47
:103C60001360039819B0BDE8F08F8E4B03930333B4
:103C7000F5E7DDE90434CDE90C34DDE90C0100227F
:103C8000002303F07FF9804660B1249A012313607A
:103C9000269B002B00F06085844B269A1360013B25
:103CA0000393DEE716AB019317AB00932846DDE9DB
:103CB0000C2301F0E5F9C9F30A548246002C7DD0AB
:103CC0000D9BCDF84C80C3F31303DDE90C0143F0E9
:103CD0007F5343F44013A4F2FF3419460022744B7F
:103CE000FEF7AEF966A3D3E9002302F0E3FE66A374
:103CF000D3E90023FEF7A6F9064620460F46FEF755
:103D0000EDFA63A3D3E9002302F0D4FE02460B468A
:103D100030463946FEF796F906460F4603F07AF923
:103D20000022834600233046394603F035F948B176
:103D30005846FEF7D3FA32463B4603F023F908B95A
:103D40000BF1FF3BBBF1160F56D85A4B03EBCB03DD
:103D5000D3E90023DDE90C0103F01EF900284DD062
:103D60000BF1FF3B00230F93169B1B1B5A1E44BFF6
:103D7000C3F101090023099254BF4FF000090993D0
:103D8000BBF1000F3CDB099BCDF838B05B440993D5
:103D900000230A93229B092B66D8052BC4BF043B42
:103DA0002293229BA3F10203CCBF00240124032B06
:103DB00000F28480DFE803F02C393756DDE9164342
:103DC0001C4404F23243202BC1BFC3F1400309FA63
:103DD00003F904F2124326FA03F3D6BFC3F120031A
:103DE00049EA030006FA03F0FEF768FA0122A1F19E
:103DF000F873013C139270E70123B4E70F90B3E727
:103E0000CBF100030A930023A9EB0B090E93C1E742
:103E100000230B93239B002B53DC01230693089371
:103E20001A4623920BE00123F3E700230B93239B15
:103E30005B4406930133012B0893B8BF0123E86963
:103E40000021042202F114069E423ED94160284618
:103E500000F044FD039000283AD1174B024640F28F
:103E6000AF11C5E60123E1E70124002322930B945F
:103E70004FF0FF330693089300221223D1E700BFCF
:103E800061436F63A787D23FB3C8608B288AC63F60
:103E9000FB799F501344D33F4E75000865750008A9
:103EA0000000F07F4A750008417500081975000888
:103EB0000000F83F78760008D075000801230B93C6
:103EC000D6E7239B06930893B9E701315200B9E77F
:103ED000EB69039A1A60089B0E2B00F2A880002C55
:103EE00000F0A580BBF1000F34DD9A4B0BF00F0200
:103EF00003EBC203D3E900341BF4807FCDE9103417
:103F00004FEA2B1416D0944BDDE90C01D3E90823BA
:103F100002F0FAFECDE9040104F00F0403278E4EEF
:103F200054B9DDE91023DDE9040102F0EDFECDE92D
:103F3000040129E00227F2E7E10708D5DDE91001D5
:103F4000D6E9002302F0B6FDCDE910010137641077
:103F50000836E5E700F0A580CBF100047D4B7E4EEE
:103F600004F00F0203EBC203D3E90023DDE90C01E7
:103F700002F0A0FDCDE90401241100230227002C4A
:103F800040F08480002BD2D1DDE90434CDE9103437
:103F90000F9B002B00F08780DDE910016F4B0022A2
:103FA00002F0FAFF00287ED0089B002B7BD0069BF6
:103FB000002B38DDDDE91001694B002202F07AFDAB
:103FC000CDE90401069C0BF1FF3801373846FEF7B6
:103FD00085F9DDE9042302F06DFD624B0022FEF756
:103FE00031F8A1F15076CDE910011196002C5DD188
:103FF000DDE904015C4B0022FEF722F802460B4685
:10400000CDE90423109A334602F0E4FF002840F083
:104010009582DDE90401109A06F1004302F0BCFF2D
:10402000002840F08982DDE90C34CDE90434179B87
:10403000002BC0F25181BBF10E0F00F34D81454BB7
:1040400003EBCB03D3E90034CDE90634239B002BEB
:1040500080F2DA80089B002B00F3D68040F06B8260
:10406000414B0022DDE9060102F024FDDDE90423D5
:1040700002F0A6FF089C2646002840F04182039FDC
:10408000312307F8013B0BF1010B3DE2E20705D5B7
:10409000D6E9002302F00EFD013701236410083633
:1040A0006DE7022770E7089CD8468FE70399294BF4
:1040B000214412910B9903EBC403DDE9106753E926
:1040C0000223002954D02949002002F01DFE3B465E
:1040D0003246FDF7B5FFCDE91001039FDDE904018C
:1040E00002F098FF0446FEF7F9F802460B46DDE9B8
:1040F0000401FDF7A5FF303402460B46CDE9042349
:1041000007F8014BDDE9102302F046FF002873D1C8
:10411000DDE9042311490020FDF792FFDDE91023BA
:1041200002F03AFF002840F0B680129B9F423FF415
:104130007AAFDDE910010A4B002202F0BBFC084B0C
:10414000CDE910010022DDE9040102F0B3FCCDE964
:104150000401C3E778760008507600080000F03FBD
:104160000000244000001C40000014400000E03F1C
:104170003046394602F09EFCCDE91001129B039CAB
:104180001493DDE9040102F045FF1590FEF7A6F84F
:1041900002460B46DDE90401FDF752FF159B303363
:1041A00004F8013B129B9C4206460F464FF000026A
:1041B00024D1B04BDDE91001FDF744FF02460B4668
:1041C0003046394602F006FF002863D1DDE91023AE
:1041D000A8490020FDF734FF02460B463046394619
:1041E00002F0DAFE00283FF41EAF149F7B1E1493EA
:1041F00017F8013C302BF8D0C3463BE09E4B02F051
:1042000059FCCDE90401BCE7DDE90489039FDDE940
:1042100006234046494602F077FD02F0FBFE0446C5
:10422000FEF75CF8DDE9062302F044FC04F13006F9
:1042300002460B4640464946FDF702FF07F8016B70
:10424000039EDDF820C0BE1BB44502460B4636D1A6
:10425000FDF7F8FEDDE906238046894602F0BAFE46
:1042600058BBDDE906234046494602F08BFE08B103
:10427000E30722D45146284600F070FB0023249A1D
:104280003B700BF101031360269B002B3FF4E9AC5C
:104290001F60E6E427463B461F4613F8012D392AE6
:1042A00007D1039A9A42F7D10399302208F1010805
:1042B0000A701A7801321A709EE7D846EBE76E4B07
:1042C000002202F0F7FB002200238046894602F01C
:1042D00059FE00289BD0CDE70B9A002A00F0C4803D
:1042E000229A012A00F3A880139A002A00F0A080E5
:1042F00003F233430A9C4F46099A01211A44284687
:104300009944099200F02AFC06465FB1099B002BF4
:1043100008DDBB42099AA8BF3B46A9EB0309FF1A77
:10432000D31A09930A9BF3B10B9B002B00F0A080DA
:10433000002C10DD31462246284600F0CFFC5246C4
:1043400001460646284600F01FFC51468046284696
:1043500000F004FBC2460A9B1A1B04D051462846B3
:1043600000F0BCFC82460121284600F0F7FB0E9BC2
:10437000002B044640F382801A460146284600F08E
:10438000ADFC229B012B04467BDD4FF00008236926
:1043900004EB8303186900F093FBC0F12000099B34
:1043A000184410F01F0000F09280C0F12003042B8D
:1043B00040F38580099BC0F11C00034481440744FD
:1043C0000993B9F1000F05DD51464A46284600F031
:1043D000DFFC8246099B002B05DD21461A46284654
:1043E00000F0D6FC04460F9B002B72D021465046AD
:1043F00000F03AFD00286CDA002351460A222846D4
:1044000000F0CEFA0B9B0BF1FF3B8246002B00F035
:10441000AD81002331460A22284600F0C1FA069BEE
:10442000002B064600F39380229B022B59DC8EE082
:10443000169BC3F136035DE7089B5C1E0A9BA342F3
:10444000BFBF0A9B0E9A0A94E31AB4BFD2181C1B72
:10445000089BBCBF0E920024002BB5BFA9EB03073D
:10446000089B00234F4647E70A9C0B9E4F464CE7AC
:104470000A9A73E70000E03F00002440229B012BD2
:1044800018DC049BB3B9059BC3F3130393B9059BD5
:1044900023F000431B0D1B057BB1099B013309F180
:1044A000010909934FF001080E9B002B7FF46FAFB9
:1044B000012074E74FF00008F6E79846F4E780D053
:1044C000099A1C331A4499441F44099279E7034618
:1044D000F6E7089B002B34DC229B022B31DD089B86
:1044E0000693069B63B921460522284600F058FA38
:1044F00001460446504600F0B7FC00283FF7BFAD28
:10450000239B039F6FEA030B4FF0000821462846C8
:1045100000F024FA002E3FF4ADAEB8F1000F05D044
:10452000B04503D04146284600F018FA31462846E7
:1045300000F014FA9EE600242646E1E7C34626462C
:104540009DE50B9B002B00F0C880089B0693002F75
:1045500005DD31463A46284600F01AFC0646B8F119
:10456000000F5BD07168284600F0B8F9074628B9FB
:10457000824B024640F2EF21FFF73ABB326902322A
:10458000920006F10C010C3001F072FE0122394656
:10459000284600F0FDFB039B039A01330893069B1A
:1045A00013440B93049B03F00103B0460A930646A1
:1045B000089B2146013B50460493FFF77DFA414694
:1045C000069000F13009504600F04EFC324609904A
:1045D0002146284600F064FCC268074602BB01463B
:1045E000504600F041FC0246394628460C9200F045
:1045F000B5F9229B0C9A089F43EA02010A9B1943D2
:1046000010D1B9F1390F29D0099B002B02DD069B8F
:1046100003F13109049B83F8009077E73046BAE74D
:104620000122E1E7099B002B04DB22990B430A9945
:104630000B4320D1002AEDDD51460122284600F02F
:10464000A7FB2146824600F00FFC002803DCE1D1E5
:1046500019F0010FDED0B9F1390FD8D1049A3923FE
:1046600013703B461F46013B17F8012C392A6CD0CA
:1046700001321A704AE7002A07DDB9F1390FEDD08F
:10468000049A09F10103137040E7089B0B9A03F8A1
:10469000019C934243D0514600230A22284600F051
:1046A0007FF9B04582464FF000034FF00A024146C1
:1046B000284607D100F074F980460646089B01336E
:1046C000089375E700F06CF93146804600230A2212
:1046D000284600F065F90646F0E7089B0693039F1D
:1046E00021465046FFF7E8F900F13009039B07F82F
:1046F000019BFA1A069B934207DD514600230A22CA
:10470000284600F04DF98246EAE7069B002BC8BF19
:104710001F46039BD8BF01271F444FF00008514696
:104720000122284600F034FB2146824600F09CFB23
:10473000002896DC02D119F0010F92D13B461F46AA
:1047400013F8012D302AFAD0E0E6039A9A4289D173
:104750000BF1010B312396E7094BFFF7A1BA269B1A
:10476000002B7FF479AA074BFFF79ABA069B002B20
:10477000B5DC229B022B3FF7B4AEB0E7D075000842
:104780001875000841750008024B0146186800F0D2
:1047900023B800BF6400002070B50E4E0C4631688F
:1047A000054611B901F052FD30602146284601F05E
:1047B0004DFD431C0AD0C41C24F00304A04207D0C2
:1047C000211A284601F042FD013001D14FF0FF349B
:1047D000204670BD740200202DE9F041CD1C25F06B
:1047E000030508350C2D38BF0C25002D074601DBCD
:1047F000A94205D90C233B6000263046BDE8F08174
:104800002F4E00F05FF833681C4644BB29463846FB
:10481000FFF7C2FF431C04464FD134682646002EE2
:1048200042D1002C43D023683146384604EB0308BC
:1048300001F00CFD80453AD123680335ED1A25F0CF
:10484000030508350C2D38BF0C2529463846FFF7DF
:10485000A3FF01302BD023682B4423600EE0226895
:10486000521B1ED40B2A16D96119A342256018BF0A
:104870005960636808BF316062514B60384604F18B
:104880000B0600F025F826F00706231DF21AB4D017
:104890009B1BA350B1E76268A3420CBF32605A6011
:1048A000ECE723466468B0E734467668B7E70C2344
:1048B0003B60384600F00CF89FE72560DEE700BF5C
:1048C00070020020014801F0D1BC00BF7802002036
:1048D000014801F0CCBC00BF7802002070B5C66969
:1048E00004460D4676B91020FFF74EFF0246E06100
:1048F00020B9184B18486B21FCF78CFAC0E9016607
:104900000660C660E669F36883B1E369DB6853F863
:104910002500B8B9012101FA05F6721D9200204662
:1049200001F0BAFC60B1C0E901560EE02122042179
:10493000204601F0B1FCE369F060DB68002BE4D1B4
:10494000002070BD026843F825200023C0E903332E
:10495000F7E700BF4E750008E175000870B5C6693D
:1049600005460C4676B91020FFF70EFF0246E861B7
:1049700020B9094B09488F21FCF74CFAC0E90166C0
:104980000660C6603CB1EB696268DB6853F82210D0
:10499000216043F8224070BD4E750008E1750008A3
:1049A0002DE9F0410D6907460C461E4601F1140C35
:1049B0000020DCF8003099B202FB01611E0C0B0CE8
:1049C00002FB063389B2013001EB034185424CF80A
:1049D000041B4FEA1346ECDC0EB3A368AB4219DCB0
:1049E000616838460131FFF779FF804628B90246F1
:1049F0000C4B0D48BA21FCF70DFA2269023204F182
:104A00000C0192000C3001F033FC21463846FFF7D0
:104A1000A5FF444604EB850301355E612561204610
:104A2000BDE8F081D0750008E17500082DE9F84374
:104A30000C4615461F4609220833064693FBF2F33F
:104A4000002101229A4209DB3046FFF747FF40B9B7
:104A50000246194B1948D321FCF7DCF95200013109
:104A6000F0E7089B4361092D4FF00103036116DD58
:104A700004F10909C8462C4418F8013B0146303BB3
:104A80000A223046FFF78CFFA045F5D1A5F10804B6
:104A90004C442D1B6319BB4204DBBDE8F8830A3488
:104AA0000925F6E714F8013B0146303B0A2230465F
:104AB000FFF776FFEEE700BFD0750008E17500084C
:104AC000020C12040346CAB90304102013F07F4FEE
:104AD00004BF1B02083013F0704F04BF1B010430E9
:104AE00013F0404F04BF9B000230002B05DB13F096
:104AF000804F00F1010008BF202070470020E5E74B
:104B00000368024613F007000BD0D90721D4980799
:104B100049BF5B089B08012013605CBF1360022043
:104B2000704799B209B91B0C1020D9B209B90830E5
:104B30001B0A190704BF1B090430990704BF9B080F
:104B40000230D90703D45B0800F1010003D01360E1
:104B500070470020704720207047000010B50C46B9
:104B60000121FFF7BBFE024628B9054B054840F27C
:104B70004511FCF74FF901234461036110BD00BFEB
:104B8000D0750008E17500082DE9F04F91460A69DB
:104B9000D9F810309A42B8BF0B460C46BCBF4C4601
:104BA00099462769D9F810A0A368616807EB0A063F
:104BB000B34285B0B8BF0131FFF790FE30B902466D
:104BC000444B45484FF4B171FCF724F900F114054A
:104BD00005EB86082B460022434521D304F114033C
:104BE00003EB870709F1140303EB8A0202923A1BD5
:104BF000153A22F00302043204F115018F4238BF46
:104C000004220192029A03939A420CD8002E03DDEB
:104C100058F8043D002B5AD0066105B0BDE8F08F6E
:104C200043F8042BD8E7B3F800A0BAF1000F23D063
:104C300004F1140EA9464FF0000C5EF8042BD9F8CD
:104C400000101FFA82FB89B20AFB0B116144D9F8EC
:104C500000C0120C4FEA1C4C0AFB02C202EB1142CC
:104C600089B241EA0241774549F8041B4FEA124CE8
:104C7000E3D8019A45F802C0039AB2F802900433CF
:104C8000B9F1000F21D0296804F1140CAE464FF0A1
:104C9000000ABCF800B0BEF8022009FB0B22524407
:104CA00089B241EA02414EF8041B5CF8041B4FEA4A
:104CB000114ABEF8001009FB0A1101EB12416745C9
:104CC0004FEA114AE5D8019AA95004359AE7013E06
:104CD0009CE700BFD0750008E17500082DE9F84396
:104CE000154612F0030206460F4607D0254C013A3E
:104CF000002354F82220FFF753FE0746AD103DD0A5
:104D0000F4697CB91020FFF73FFD0246F06128B935
:104D10001D4B1E4840F2B311FCF77CF8C0E901447A
:104D20000460C460D6F81C80D8F808404CB940F242
:104D300071213046FFF712FF0023C8F8080004462F
:104D400003604FF00009EB070AD53946224630468A
:104D5000FFF71AFF394680463046FFF7FFFD47460A
:104D60006D100BD0206838B9224621463046FFF737
:104D70000BFF2060C0F800900446E4E73846BDE829
:104D8000F88300BF407700084E750008E175000801
:104D90002DE9F0470C464968236903EB6218A368C4
:104DA000074691464FEA621A08F10106B3420BDB4F
:104DB0003846FFF793FD054648B90246284B294877
:104DC0004FF4EF71FCF726F801315B00EEE70023AA
:104DD00000F1140100F110021846534533DB20693D
:104DE0002AEAEA7A04F1140319F01F0901EB8A0197
:104DF00003EB800C2BD0C9F1200E8A4600221868E4
:104E000000FA09F010434AF8040B53F8042B9C45B0
:104E100022FA0EF2F3D8ACEB0403153B23F00303A4
:104E2000043304F11500844538BF0423CA500AB185
:104E300008F10206013E38462E612146FFF78EFD3D
:104E40002846BDE8F08742F8040F0133C5E704396E
:104E500053F8042B41F8042F9C45F9D8EAE700BF2A
:104E6000D0750008E17500080A6903460069801AD8
:104E700030B50DD11433143103EB820401EB820100
:104E800054F8045D51F8042D954202D004D301205A
:104E900030BDA342F4D3FBE74FF0FF30F8E700004A
:104EA0002DE9F84F0D460746114628461446FFF7F0
:104EB000DBFF061E11D131463846FFF70FFD0246D3
:104EC00028B9394B40F237213848FBF7A3FF0123BB
:104ED000C0E904361046BDE8F88FA4BF23462C462F
:104EE00038466168A6BF1D4600260126FFF7F6FC7E
:104EF000024618B92C4B40F24521E5E72769C66008
:104F00002E6904F1140005F1140902F1140E00EBEE
:104F1000870C09EB86061034F246002159F8043B51
:104F200054F804BF11FA8BF899B21B0CA8EB0108D6
:104F3000C3EB1B4303EB28431FFA88F819144E45B3
:104F400048EA03434AF8043BE8D8731B153B23F0B7
:104F5000030304331535AE4238BF042318447344A9
:104F60009E46064666450ED30CF10301091A21F050
:104F700003010338844538BF00210B4453F8041D56
:104F800079B11761A6E756F8048B11FA88F4251455
:104F900005EB1845A4B244EA05444EF8044B291425
:104FA000E0E7013FEAE700BFD0750008E1750008BF
:104FB0000E4B0B40A3F15073002B08DC5B42B3F1A6
:104FC000A07F4FEA235204DA4FF40023134100225A
:104FD00008E0A2F114031E2BDABF4FF00042DA40C2
:104FE0000122002319461046704700BF0000F07FE1
:104FF000F8B5056900F1140707EB85052E1F55F874
:10500000044C2046FFF75CFDC0F120020A28DFF8BF
:105010006CC00A60034612DCC0F10B0E24FA0EF2DB
:10502000B74242EA0C0134BF55F8082C0022153370
:1050300004FA03F322FA0EF21A431046F8BDB742FF
:105040003ABF55F8082CA5F1080600220B3B12D0F8
:10505000C3F1200522FA05F19C400C43BE4244F006
:105060007F518CBF56F8044C00249A40EC4041F428
:1050700040112243E1E744EA0C01DEE70000F03F83
:10508000F7B50121089E17461C46FFF727FC054689
:1050900030B90246234B244840F20F31FBF7BAFEE9
:1050A000C4F31303C4F30A5424BB002F019326D086
:1050B00068460097FFF724FDDDE90012E8B1C0F172
:1050C000200302FA03F30B43C2406B610192019B80
:1050D000AB61002B14BF022101212961BCB1A4F2F4
:1050E000334404443460C0F13500099B18602846FD
:1050F00003B0F0BD43F48013D7E76961E7E701A887
:10510000FFF7FEFC019B6B6120300121E5E705EB19
:105110008103A0F2324030601869FFF7D1FCC0EB88
:105120004110E2E7D0750008E17500082DE9F74F5E
:10513000884669468146FFF75BFF0F4604460D46E9
:10514000404601A9FFF754FFD9F81030D8F81020D5
:10515000A3EB020CDDE900329B1A03EB4C13002B8E
:10516000D5BF0A462A46C3EB033302EB03578B46EF
:10517000D8BF02EB035B5B4602463946204601F08E
:10518000C3FD03B0BDE8F08F013970B54911146952
:10519000013102F1140300EB810103EB8404051FCC
:1051A000A3420CD3A31A113B23F003031132A242F2
:1051B00088BF002318440023884205D370BD53F8EC
:1051C000046B45F8046FEBE740F8043BF4E700F1AB
:1051D000140200694B11984210B511DB0ADD11F081
:1051E0001F0107D052F8234024FA01F000FA01F120
:1051F0008C420BD102EB8303934203D8002010BDF5
:105200000346F7E753F8041D0029F5D00120F6E71F
:105210002DE9F0410F469046FFF7CAFE04460D46C1
:10522000B8F1000F11D0C7F30A53C3F16B03002B81
:105230000BDD1B0503F17F55002405F540152246C3
:105240002B4601F037FC04460D4620462946BDE8B2
:10525000F0810000000000002DE9F04F9FB00446EF
:10526000179200221A920D464FF000084FF00009E5
:105270000A46199211782B294AD038D80D2932D8EC
:10528000082932D800293BD000220E92199E32788C
:10529000302A40F0B280727802F0DF02582A6ED1D4
:1052A00002930E9B01931AAB00938D4A1BAB19A975
:1052B000204601F0B7F810F00F07054605D0062F7D
:1052C00028D10136002319960E93179B002B40F02E
:1052D0009C850E9BCBB1424609F10043104619460E
:1052E0001FB0BDE8F08F2029CED10132C1E72D29B2
:1052F000CAD101210E91511C19915278002AC5D1B1
:10530000179B1995002B40F07E8542464B46E5E7FA
:105310000021EFE71A9A3AB135211CA8FFF734FFB4
:105320001A992046FFF71AFB013F1B9A042F06D853
:10533000DFE807F014031D201400DDE91C89E905EE
:1053400048BF49F0004929F000431B0D1B05002B05
:10535000BBD1FEF74BFB22230360B6E7DDE91C83DC
:1053600002F2334223F4801343EA0259E7E7DFF8FD
:105370007491E4E76FF000494FF0FF38DFE7199BC5
:105380005A1C19925B78302BF9D0002B9DD0012349
:105390004FF0000A0593199B0B93CDF828A0D34634
:1053A0000A2219980678A6F13003D9B2092926D91C
:1053B0004D49012200F038FF002830D0002032464D
:1053C00008905E460346652A01D0452A13D11EB9CE
:1053D000059A024394D00026199D6A1C19926A7896
:1053E0002B2A74D02D2A78D04FF0000CA2F1300176
:1053F00009297FD9199500279EE00023C8E7BBF152
:10540000080FD8BF0A9900F10100DABF02FB01338F
:105410000A9302FB0A3A0BF1010B1990C1E7199BA1
:105420005A1C19925A78BBF1000F37D008905E468B
:10543000A2F13003092B12D90123C4E7199B5A1C8E
:1054400019925A780130302AF8D0A2F13103082B92
:1054500000F2E084199B089000200B930646303A36
:1054600000F1010314D0089919440891334600EB68
:10547000060C0A21634513D13318082B06F10106E7
:1054800006441ADC0A990A2303FB01230A9300232A
:10549000199A511C199152781846C9E75846D2E713
:1054A000082B03F1010303DC0A9F4F430A97E1E74E
:1054B000102BD8BF01FB0AFADCE7102EDCBF0A2351
:1054C00003FB0A2AE3E700230893012380E74FF058
:1054D000000CAA1C1992AA7888E74FF0010CF8E793
:1054E000507700080000F07F4C770008199A511C93
:1054F00019915278302AF9D0A2F1310108293FF6EA
:105500007AAF303A0992199A0C92199A571C199746
:105510005278A2F1300EBEF1090F38D90C997F1ADA
:10552000082F44F61F6703DC09998F42A8BF0F4676
:10553000BCF1000F00D07F42002E4FD105990143EE
:105540007FF4C3AE002B7FF4DBAE692A29D026DCC2
:10555000492A26D04E2A7FF4D3AE9A4919A801F0E1
:10556000A3F900283FF4CCAE199B1B78282B2FD130
:1055700095491CAA19A801F0ABF9052828D11D9B53
:10558000DDF8708043F0FF4949F4E0099DE6099F8A
:105590000A2101FB0721A1F130020992B5E76E2A29
:1055A000D9E78A4919A801F07FF900283FF4A8AE8D
:1055B000199B8749013B19A8199301F075F910B996
:1055C000199B01331993DFF80C924FF000087CE629
:1055D000814800F05BFE8046894676E6089B0A9883
:1055E000FB1ABBF1000F08BFB346102E09933546D6
:1055F000A8BF1025FCF762FE092E8046894613DD00
:10560000764B03EBC50353E9122301F053FA8046AE
:1056100050468946FCF752FE02460B464046494634
:10562000FCF710FD804689460F2E36DC099B002BC7
:105630003FF44BAE22DD162B09DC684901EBC301B8
:10564000D1E9000142464B4601F034FAC3E7099A1A
:10565000C6F12503934220DB604CC6F10F0604EB34
:10566000C60142464B46D1E9000101F023FA099BED
:105670009E1B04EBC604D4E90023E5E7099B16331F
:105680000BDB089BDF1B554B03EBC707D7E9002358
:105690004046494601F038FB9DE7099B751B1D44B8
:1056A000002D70DD15F00F030AD04C4901EBC3014A
:1056B00042464B46D1E9000101F0FCF9804689469B
:1056C00035F00F054DD0B5F59A7F22DD0026B346A3
:1056D0000B9608962223DFF8FC9023604FF0000819
:1056E0000B9B002B3FF4F1AD1A992046FFF736F9DA
:1056F00008992046FFF732F959462046FFF72EF960
:105700000B992046FFF72AF931462046FFF726F984
:10571000DBE5334B059300232D11404649469A465D
:10572000012D21DC0BB1804689462D49A9F1547920
:1057300001EBCA0142464B46D1E9000101F0BAF93A
:10574000244B0A460B4027498B428046BED8A1F520
:1057500080118B4286BFDFF890904FF0FF3802F146
:105760005479002305937BE0EA0705D5059BD3E92F
:10577000002301F09FF90123059A08320AF1010A7A
:105780006D100592CCE7ECD06D4215F00F020AD0F7
:10579000124B03EBC20340464946D3E9002301F014
:1057A000B3FA804689462D11DBD01F2D1EDD002661
:1057B000B3460B96089622234FF000084FF00009DD
:1057C00023608DE715750008647700080D750008E3
:1057D000447500080000F07FA6780008787600087D
:1057E000507600080000A07CFFFFEF7F15F010034B
:1057F00018BF6A23DFF8CCA2059340464946002330
:10580000EA0704D5DAE9002301F054F901236D1009
:105810000AF1080AF4D10BB180468946059BBBB159
:10582000C9F30A52C2F16B03002B494610DD1F2B4E
:1058300040F32581342BDEBF4FF0FF33C2F14B0222
:1058400093404FF00008CCBF4FF05C7903EA0109A8
:10585000002200234046494601F094FB0028A6D1CF
:105860000A9B00930B9933465A462046FFF7DEF811
:105870000B9000283FF42AAF099A089B002AA3EB5B
:105880000703A8BF00231293002622EAE2731693AF
:10589000B3460B9B20465968FFF720F80890002874
:1058A0003FF418AF0B9B1A69023203F10C0192000E
:1058B0000C3000F0DDFC1CAB01931BAB00934246A7
:1058C0004B462046CDF83080CDF83C90FFF7D8FB12
:1058D0001A9000283FF4FEAE01212046FFF73EF962
:1058E000834600283FF4F6AE1B9F1C9A002FABBFE7
:1058F000129B169B169DDDF848A0ACBF07EB030A70
:10590000DD1B059BFF1A17446F4B013F9F42C2F1FD
:10591000360280F2C780DB1B1F2BA2EB03024FF085
:10592000010100F3B38001FA03F3139300231093F2
:105930000AEB0207059BBA4515441D445346A8BF10
:105940003B46AB42A8BF2B46002BC2BFFF1AED1A45
:10595000AAEB030A129B002B17DD59461A46204674
:10596000FFF7BCF9834600283FF4B4AE01461A9A0B
:105970002046FFF709F90A9000283FF4ABAE1A99C8
:105980002046FEF7EBFF0A9B1A93002F00F38F804F
:10599000099B002B08DD169A08992046FFF79EF90F
:1059A000089000283FF496AE002D08DD08992A469D
:1059B0002046FFF7EDF9089000283FF48BAEBAF1CE
:1059C000000F08DD594652462046FFF7E1F98346AD
:1059D00000283FF47FAE089A1A992046FFF760FA34
:1059E000064600283FF476AE0025C368C5605946D8
:1059F0000A93FFF739FAA8426CDA0A9B53EA0803C4
:105A000040F09080C9F31303002B40F08B8029F005
:105A100000431B0D1B05B3F1D66F40F28380736901
:105A200013B93369012B7DDD314601222046FFF792
:105A3000AFF959460646FFF717FA002872DD0599B7
:105A4000224A4B46002900F08E8002EA0901B1F19A
:105A5000D66F00F38880B1F15C7F7FF7ACAE1C4B52
:105A600040464946002201F025F8184B0B4080467D
:105A70008946002B7FF438AE2223236034E64FF0B2
:105A8000FF3202FA03F303EA0808E1E6C7F17F47B1
:105A900007F57F0707F57B47E23701FA07F3109315
:105AA000139145E7002310930123139340E71A99BC
:105AB0003A462046FFF76CF91A9000287FF468AF49
:105AC00008E600BF7877000802FCFFFF0000F07FC7
:105AD00000005039CA4665D10A9AC9F3130352B37C
